{
  "_format": "hh-sol-artifact-1",
  "contractName": "FHEMessengerFull",
  "sourceName": "contracts/FHEMessenger.sol",
  "abi": [
    {
      "anonymous": false,
      "inputs": [
        {
          "indexed": false,
          "internalType": "uint256",
          "name": "conversationId",
          "type": "uint256"
        },
        {
          "indexed": false,
          "internalType": "address",
          "name": "sender",
          "type": "address"
        },
        {
          "indexed": false,
          "internalType": "address",
          "name": "receiver",
          "type": "address"
        }
      ],
      "name": "ConversationCreated",
      "type": "event"
    },
    {
      "anonymous": false,
      "inputs": [
        {
          "indexed": false,
          "internalType": "uint256",
          "name": "messageId",
          "type": "uint256"
        },
        {
          "indexed": false,
          "internalType": "uint256",
          "name": "conversationId",
          "type": "uint256"
        },
        {
          "indexed": false,
          "internalType": "address",
          "name": "from",
          "type": "address"
        },
        {
          "indexed": false,
          "internalType": "address",
          "name": "to",
          "type": "address"
        }
      ],
      "name": "MessageSent",
      "type": "event"
    },
    {
      "anonymous": false,
      "inputs": [
        {
          "indexed": true,
          "internalType": "address",
          "name": "user",
          "type": "address"
        },
        {
          "indexed": false,
          "internalType": "string",
          "name": "name",
          "type": "string"
        }
      ],
      "name": "ProfileCreated",
      "type": "event"
    },
    {
      "anonymous": false,
      "inputs": [
        {
          "indexed": true,
          "internalType": "address",
          "name": "user",
          "type": "address"
        },
        {
          "indexed": false,
          "internalType": "string",
          "name": "field",
          "type": "string"
        }
      ],
      "name": "ProfileUpdated",
      "type": "event"
    },
    {
      "inputs": [
        {
          "internalType": "uint256",
          "name": "",
          "type": "uint256"
        }
      ],
      "name": "conversations",
      "outputs": [
        {
          "internalType": "uint256",
          "name": "id",
          "type": "uint256"
        },
        {
          "internalType": "address",
          "name": "sender",
          "type": "address"
        },
        {
          "internalType": "address",
          "name": "receiver",
          "type": "address"
        },
        {
          "internalType": "uint64",
          "name": "createdAt",
          "type": "uint64"
        },
        {
          "internalType": "enum FHEMessengerFull.Status",
          "name": "status",
          "type": "uint8"
        }
      ],
      "stateMutability": "view",
      "type": "function"
    },
    {
      "inputs": [
        {
          "internalType": "string",
          "name": "name",
          "type": "string"
        },
        {
          "internalType": "string",
          "name": "avatarUrl",
          "type": "string"
        }
      ],
      "name": "createProfile",
      "outputs": [],
      "stateMutability": "nonpayable",
      "type": "function"
    },
    {
      "inputs": [],
      "name": "deactivateProfile",
      "outputs": [],
      "stateMutability": "nonpayable",
      "type": "function"
    },
    {
      "inputs": [
        {
          "internalType": "uint256",
          "name": "conversationId",
          "type": "uint256"
        }
      ],
      "name": "getMessages",
      "outputs": [
        {
          "components": [
            {
              "internalType": "uint256",
              "name": "id",
              "type": "uint256"
            },
            {
              "internalType": "uint256",
              "name": "conversationId",
              "type": "uint256"
            },
            {
              "internalType": "address",
              "name": "sender",
              "type": "address"
            },
            {
              "internalType": "address",
              "name": "receiver",
              "type": "address"
            },
            {
              "internalType": "uint64",
              "name": "createdAt",
              "type": "uint64"
            },
            {
              "internalType": "enum FHEMessengerFull.Status",
              "name": "status",
              "type": "uint8"
            },
            {
              "internalType": "euint256[]",
              "name": "content",
              "type": "bytes32[]"
            }
          ],
          "internalType": "struct FHEMessengerFull.Message[]",
          "name": "out",
          "type": "tuple[]"
        }
      ],
      "stateMutability": "nonpayable",
      "type": "function"
    },
    {
      "inputs": [
        {
          "internalType": "uint256",
          "name": "",
          "type": "uint256"
        }
      ],
      "name": "messages",
      "outputs": [
        {
          "internalType": "uint256",
          "name": "id",
          "type": "uint256"
        },
        {
          "internalType": "uint256",
          "name": "conversationId",
          "type": "uint256"
        },
        {
          "internalType": "address",
          "name": "sender",
          "type": "address"
        },
        {
          "internalType": "address",
          "name": "receiver",
          "type": "address"
        },
        {
          "internalType": "uint64",
          "name": "createdAt",
          "type": "uint64"
        },
        {
          "internalType": "enum FHEMessengerFull.Status",
          "name": "status",
          "type": "uint8"
        }
      ],
      "stateMutability": "view",
      "type": "function"
    },
    {
      "inputs": [],
      "name": "myConversations",
      "outputs": [
        {
          "components": [
            {
              "internalType": "uint256",
              "name": "id",
              "type": "uint256"
            },
            {
              "internalType": "address",
              "name": "sender",
              "type": "address"
            },
            {
              "internalType": "address",
              "name": "receiver",
              "type": "address"
            },
            {
              "internalType": "uint64",
              "name": "createdAt",
              "type": "uint64"
            },
            {
              "internalType": "enum FHEMessengerFull.Status",
              "name": "status",
              "type": "uint8"
            }
          ],
          "internalType": "struct FHEMessengerFull.Conversation[]",
          "name": "out",
          "type": "tuple[]"
        }
      ],
      "stateMutability": "view",
      "type": "function"
    },
    {
      "inputs": [
        {
          "internalType": "string",
          "name": "name",
          "type": "string"
        }
      ],
      "name": "nameExists",
      "outputs": [
        {
          "internalType": "bool",
          "name": "",
          "type": "bool"
        }
      ],
      "stateMutability": "view",
      "type": "function"
    },
    {
      "inputs": [
        {
          "internalType": "address",
          "name": "",
          "type": "address"
        }
      ],
      "name": "profiles",
      "outputs": [
        {
          "internalType": "string",
          "name": "name",
          "type": "string"
        },
        {
          "internalType": "string",
          "name": "avatarUrl",
          "type": "string"
        },
        {
          "internalType": "uint64",
          "name": "createdAt",
          "type": "uint64"
        },
        {
          "internalType": "bool",
          "name": "active",
          "type": "bool"
        }
      ],
      "stateMutability": "view",
      "type": "function"
    },
    {
      "inputs": [
        {
          "internalType": "string",
          "name": "name",
          "type": "string"
        }
      ],
      "name": "resolveName",
      "outputs": [
        {
          "internalType": "address",
          "name": "",
          "type": "address"
        }
      ],
      "stateMutability": "view",
      "type": "function"
    },
    {
      "inputs": [
        {
          "internalType": "address",
          "name": "to",
          "type": "address"
        },
        {
          "internalType": "externalEuint256[]",
          "name": "contentExt",
          "type": "bytes32[]"
        },
        {
          "internalType": "bytes[]",
          "name": "proofs",
          "type": "bytes[]"
        }
      ],
      "name": "sendMessage",
      "outputs": [],
      "stateMutability": "nonpayable",
      "type": "function"
    },
    {
      "inputs": [
        {
          "internalType": "string",
          "name": "newAvatar",
          "type": "string"
        }
      ],
      "name": "updateAvatar",
      "outputs": [],
      "stateMutability": "nonpayable",
      "type": "function"
    }
  ],
  "bytecode": "0x608060405260015f5560018055348015610017575f80fd5b506101926100b6604080516080810182525f808252602082018190529181018290526060810191909152506040805160808101825273687820221192c5b662b25367f70076a37bc79b6c815273848b0066793bcc60346da1f49049357399b8d5956020820152731364cbbf2cdf5032c47d8226a6f6fbd2afcdacac9181019190915273bc91f3dad1a5f19f8390c400196e58073b6a0bc4606082015290565b80517fed8d60e34876f751cc8b014c560745351147d9de11b9347c854e881b128ea60080546001600160a01b03199081166001600160a01b039384161790915560208301517fed8d60e34876f751cc8b014c560745351147d9de11b9347c854e881b128ea6018054831691841691909117905560408301517fed8d60e34876f751cc8b014c560745351147d9de11b9347c854e881b128ea6028054831691841691909117905560608301517fed8d60e34876f751cc8b014c560745351147d9de11b9347c854e881b128ea6038054909216921691909117905550565b7f5ea69329017273582817d320489fbd94f775580e90c092699ca6f3d12fdf7d0080546001600160a01b03191673a02cda4ca3a71d7c46997716f4283aa851c28812179055611e18806101e45f395ff3fe608060405234801561000f575f80fd5b50600436106100c4575f3560e01c8063ba1feb8a1161007d578063cc637afe11610058578063cc637afe146101f3578063dd91150b14610216578063f25c492614610280575f80fd5b8063ba1feb8a14610192578063bbe15627146101a5578063bc19bce5146101c8575f80fd5b8063558751c9116100ad578063558751c91461014c5780639fe958b91461015f578063ae36853d14610172575f80fd5b80630d80fefd146100c857806320a17bca14610142575b5f80fd5b6101276100d6366004611623565b60056020525f90815260409020805460018201546002830154600390930154919290916001600160a01b0391821691811690600160a01b810467ffffffffffffffff1690600160e01b900460ff1686565b60405161013996959493929190611662565b60405180910390f35b61014a610295565b005b61014a61015a366004611712565b61038d565b61014a61016d36600461182a565b61076a565b610185610180366004611623565b610862565b604051610139919061189e565b61014a6101a036600461196a565b610b69565b6101b86101b33660046119ca565b610dd2565b6040516101399493929190611a30565b6101db6101d6366004611a77565b610f1b565b6040516001600160a01b039091168152602001610139565b610206610201366004611a77565b610f50565b6040519015158152602001610139565b61026f610224366004611623565b60046020525f908152604090208054600182015460029092015490916001600160a01b039081169190811690600160a01b810467ffffffffffffffff1690600160e01b900460ff1685565b604051610139959493929190611ae3565b610288610f90565b6040516101399190611b28565b335f90815260026020526040812080546102ae90611bb7565b9050116103025760405162461bcd60e51b815260206004820152601160248201527f50726f66696c65206e6f7420666f756e6400000000000000000000000000000060448201526064015b60405180910390fd5b335f8181526002602081905260409182902001805468ff000000000000000019169055517fdd635a4cd84864e37e4479dbfc2ec667acfa473c83c8422a8ac9d9d07599b01c90610383906020808252600a908201527f6465616374697661746500000000000000000000000000000000000000000000604082015260600190565b60405180910390a2565b6001600160a01b0385166103e35760405162461bcd60e51b815260206004820152601160248201527f496e76616c696420726563697069656e7400000000000000000000000000000060448201526064016102f9565b8281146104325760405162461bcd60e51b815260206004820152601160248201527f4d69736d617463686564206368756e6b7300000000000000000000000000000060448201526064016102f9565b5f61043d338761118e565b90505f8467ffffffffffffffff8111156104595761045961178d565b604051908082528060200260200182016040528015610482578160200160208202803683370190505b5090505f5b85811015610599576105088787838181106104a4576104a4611be9565b905060200201358686848181106104bd576104bd611be9565b90506020028101906104cf9190611bfd565b8080601f0160208091040260200160405190810160405280939291908181526020018383808284375f9201919091525061134c92505050565b82828151811061051a5761051a611be9565b60200260200101818152505061054882828151811061053b5761053b611be9565b6020026020010151611360565b5061056c82828151811061055e5761055e611be9565b60200260200101513361136f565b5061059082828151811061058257610582611be9565b60200260200101518961136f565b50600101610487565b50600180545f91826105aa83611c40565b9190505590506040518060e00160405280828152602001848152602001336001600160a01b03168152602001896001600160a01b031681526020016105ec4290565b67ffffffffffffffff1681526020015f815260209081018490525f8381526005825260409081902083518155918301516001830155820151600280830180546001600160a01b0393841673ffffffffffffffffffffffffffffffffffffffff199091161790556060840151600384018054608087015167ffffffffffffffff16600160a01b027fffffffff0000000000000000000000000000000000000000000000000000000090911692909416919091179290921780835560a0850151929160ff60e01b1990911690600160e01b9084908111156106cd576106cd61163a565b021790555060c082015180516106ed9160048401916020909101906115cf565b5050505f838152600660209081526040808320805460018101825590845292829020909201839055815183815290810185905233818301526001600160a01b038a16606082015290517f843b432e32ca2d2435060bc96cdf561fb0c0b9a4ef5505fd0b93d04738d57de39181900360800190a15050505050505050565b335f908152600260205260408120805461078390611bb7565b9050116107d25760405162461bcd60e51b815260206004820152601160248201527f50726f66696c65206e6f7420666f756e6400000000000000000000000000000060448201526064016102f9565b335f9081526002602052604090206001016107ed8282611cb0565b50336001600160a01b03167fdd635a4cd84864e37e4479dbfc2ec667acfa473c83c8422a8ac9d9d07599b01c6040516108579060208082526006908201527f6176617461720000000000000000000000000000000000000000000000000000604082015260600190565b60405180910390a250565b5f8181526006602090815260408083208054825181850281018501909352808352606094938301828280156108b457602002820191905f5260205f20905b8154815260200190600101908083116108a0575b50505050509050805167ffffffffffffffff8111156108d5576108d561178d565b60405190808252806020026020018201604052801561094557816020015b6109326040805160e0810182525f8082526020820181905291810182905260608101829052608081018290529060a08201908152602001606081525090565b8152602001906001900390816108f35790505b5091505f5b8151811015610afc575f60055f84848151811061096957610969611be9565b60209081029190910181015182528181019290925260409081015f20815160e081018352815481526001820154938101939093526002808201546001600160a01b039081169385019390935260038201549283166060850152600160a01b830467ffffffffffffffff166080850152909350839160a0840191600160e01b90910460ff16908111156109fd576109fd61163a565b6002811115610a0e57610a0e61163a565b815260200160048201805480602002602001604051908101604052809291908181526020018280548015610a5f57602002820191905f5260205f20905b815481526020019060010190808311610a4b575b505050505081525050848381518110610a7a57610a7a611be9565b602090810291909101015260038101546001600160a01b0316331480610aac575060028101546001600160a01b031633145b8015610ad8575060026003820154600160e01b900460ff166002811115610ad557610ad561163a565b14155b15610af35760038101805460ff60e01b1916600160e11b1790555b5060010161094a565b505f838152600460205260409020600101546001600160a01b0316331480610b3c57505f838152600460205260409020600201546001600160a01b031633145b15610b63575f838152600460205260409020600201805460ff60e01b1916600160e11b1790555b50919050565b5f825111610bb95760405162461bcd60e51b815260206004820152600a60248201527f456d707479206e616d650000000000000000000000000000000000000000000060448201526064016102f9565b335f9081526002602052604090208054610bd290611bb7565b159050610c215760405162461bcd60e51b815260206004820152600e60248201527f50726f66696c652065786973747300000000000000000000000000000000000060448201526064016102f9565b5f6001600160a01b0316600383604051610c3b9190611d70565b908152604051908190036020019020546001600160a01b031614610ca15760405162461bcd60e51b815260206004820152600a60248201527f4e616d652074616b656e0000000000000000000000000000000000000000000060448201526064016102f9565b6040518060800160405280838152602001828152602001610cbf4290565b67ffffffffffffffff1681526001602091820152335f90815260029091526040902081518190610cef9082611cb0565b5060208201516001820190610d049082611cb0565b50604082810151600290920180546060909401511515680100000000000000000268ffffffffffffffffff1990941667ffffffffffffffff90931692909217929092179055513390600390610d5a908590611d70565b90815260405190819003602001812080546001600160a01b039390931673ffffffffffffffffffffffffffffffffffffffff199093169290921790915533907fbafddecbd1dec1c1afb76d693f1de16901f521bdf29a02438e3e6806c0b8d94890610dc6908590611d8b565b60405180910390a25050565b60026020525f9081526040902080548190610dec90611bb7565b80601f0160208091040260200160405190810160405280929190818152602001828054610e1890611bb7565b8015610e635780601f10610e3a57610100808354040283529160200191610e63565b820191905f5260205f20905b815481529060010190602001808311610e4657829003601f168201915b505050505090806001018054610e7890611bb7565b80601f0160208091040260200160405190810160405280929190818152602001828054610ea490611bb7565b8015610eef5780601f10610ec657610100808354040283529160200191610eef565b820191905f5260205f20905b815481529060010190602001808311610ed257829003601f168201915b5050506002909301549192505067ffffffffffffffff81169060ff680100000000000000009091041684565b5f60038383604051610f2e929190611d9d565b908152604051908190036020019020546001600160a01b031690505b92915050565b5f806001600160a01b031660038484604051610f6d929190611d9d565b908152604051908190036020019020546001600160a01b03161415905092915050565b60605f60015b5f54811015610ff9575f818152600460205260409020600101546001600160a01b0316331480610fde57505f818152600460205260409020600201546001600160a01b031633145b15610ff15781610fed81611c40565b9250505b600101610f96565b508067ffffffffffffffff8111156110135761101361178d565b60405190808252806020026020018201604052801561107257816020015b61105f6040805160a0810182525f808252602082018190529181018290526060810182905290608082015290565b8152602001906001900390816110315790505b5091505f60015b5f54811015611188575f818152600460205260409020600101546001600160a01b03163314806110c157505f818152600460205260409020600201546001600160a01b031633145b15611180575f81815260046020908152604091829020825160a0810184528154815260018201546001600160a01b039081169382019390935260028083015493841694820194909452600160a01b830467ffffffffffffffff1660608201529290916080840191600160e01b90910460ff16908111156111435761114361163a565b60028111156111545761115461163a565b905250848361116281611c40565b94508151811061117457611174611be9565b60200260200101819052505b600101611079565b50505090565b5f8061119a8484611381565b5f8181526007602052604090205490915080156111ba579150610f4a9050565b5f805490806111c883611c40565b9190505590506040518060a00160405280828152602001866001600160a01b03168152602001856001600160a01b031681526020016112044290565b67ffffffffffffffff1681526020015f90525f8281526004602090815260409182902083518155908301516001820180546001600160a01b0392831673ffffffffffffffffffffffffffffffffffffffff199091161790559183015160028083018054606087015167ffffffffffffffff16600160a01b027fffffffff000000000000000000000000000000000000000000000000000000009091169390951692909217939093178082556080850151929360ff60e01b1990911690600160e01b9084908111156112d7576112d761163a565b021790555050505f8281526007602052604090819020829055517fd70c784dd825131008ec90e6edf9e7c7fbca600451fbc1fffa2cb9fb9aa2d5199061133c908390889088909283526001600160a01b03918216602084015216604082015260600190565b60405180910390a1949350505050565b5f61135983836008611426565b9392505050565b5f61136b8230611546565b5090565b5f61137a8383611546565b5090919050565b5f816001600160a01b0316836001600160a01b0316106113df576040516bffffffffffffffffffffffff19606084811b8216602084015285901b16603482015260480160405160208183030381529060405280519060200120611359565b6040516bffffffffffffffffffffffff19606085811b8216602084015284901b16603482015260480160405160208183030381529060405280519060200120905092915050565b7fed8d60e34876f751cc8b014c560745351147d9de11b9347c854e881b128ea6015460405163196d0b9b60e01b81525f917fed8d60e34876f751cc8b014c560745351147d9de11b9347c854e881b128ea600916001600160a01b039091169063196d0b9b9061149f908890339089908990600401611dac565b6020604051808303815f875af11580156114bb573d5f803e3d5ffd5b505050506040513d601f19601f820116820180604052508101906114df9190611df4565b8154604051630f8e573b60e21b8152600481018390523360248201529193506001600160a01b031690633e395cec906044015f604051808303815f87803b158015611528575f80fd5b505af115801561153a573d5f803e3d5ffd5b50505050509392505050565b5f7fed8d60e34876f751cc8b014c560745351147d9de11b9347c854e881b128ea6008054604051635ca4b5b160e11b8152600481018690526001600160a01b03858116602483015292935091169063b9496b62906044015f604051808303815f87803b1580156115b4575f80fd5b505af11580156115c6573d5f803e3d5ffd5b50505050505050565b828054828255905f5260205f20908101928215611608579160200282015b828111156116085782518255916020019190600101906115ed565b5061136b9291505b8082111561136b575f8155600101611610565b5f60208284031215611633575f80fd5b5035919050565b634e487b7160e01b5f52602160045260245ffd5b6003811061165e5761165e61163a565b9052565b868152602081018690526001600160a01b0385811660408301528416606082015267ffffffffffffffff8316608082015260c081016116a460a083018461164e565b979650505050505050565b80356001600160a01b03811681146116c5575f80fd5b919050565b5f8083601f8401126116da575f80fd5b50813567ffffffffffffffff8111156116f1575f80fd5b6020830191508360208260051b850101111561170b575f80fd5b9250929050565b5f805f805f60608688031215611726575f80fd5b61172f866116af565b9450602086013567ffffffffffffffff8082111561174b575f80fd5b61175789838a016116ca565b9096509450604088013591508082111561176f575f80fd5b5061177c888289016116ca565b969995985093965092949392505050565b634e487b7160e01b5f52604160045260245ffd5b5f82601f8301126117b0575f80fd5b813567ffffffffffffffff808211156117cb576117cb61178d565b604051601f8301601f19908116603f011681019082821181831017156117f3576117f361178d565b8160405283815286602085880101111561180b575f80fd5b836020870160208301375f602085830101528094505050505092915050565b5f6020828403121561183a575f80fd5b813567ffffffffffffffff811115611850575f80fd5b61185c848285016117a1565b949350505050565b5f815180845260208085019450602084015f5b8381101561189357815187529582019590820190600101611877565b509495945050505050565b5f60208083018184528085518083526040925060408601915060408160051b8701018488015f5b8381101561195c57888303603f190185528151805184528781015188850152868101516001600160a01b03908116888601526060808301519091169085015260808082015167ffffffffffffffff169085015260a08082015160e0919061192e8288018261164e565b505060c09182015191850181905261194885820183611864565b9689019694505050908601906001016118c5565b509098975050505050505050565b5f806040838503121561197b575f80fd5b823567ffffffffffffffff80821115611992575f80fd5b61199e868387016117a1565b935060208501359150808211156119b3575f80fd5b506119c0858286016117a1565b9150509250929050565b5f602082840312156119da575f80fd5b611359826116af565b5f5b838110156119fd5781810151838201526020016119e5565b50505f910152565b5f8151808452611a1c8160208601602086016119e3565b601f01601f19169290920160200192915050565b608081525f611a426080830187611a05565b8281036020840152611a548187611a05565b67ffffffffffffffff959095166040840152505090151560609091015292915050565b5f8060208385031215611a88575f80fd5b823567ffffffffffffffff80821115611a9f575f80fd5b818501915085601f830112611ab2575f80fd5b813581811115611ac0575f80fd5b866020828501011115611ad1575f80fd5b60209290920196919550909350505050565b8581526001600160a01b0385811660208301528416604082015267ffffffffffffffff8316606082015260a08101611b1e608083018461164e565b9695505050505050565b602080825282518282018190525f919060409081850190868401855b82811015611baa57815180518552868101516001600160a01b039081168887015286820151168686015260608082015167ffffffffffffffff169086015260809081015190611b958187018361164e565b505060a0939093019290850190600101611b44565b5091979650505050505050565b600181811c90821680611bcb57607f821691505b602082108103610b6357634e487b7160e01b5f52602260045260245ffd5b634e487b7160e01b5f52603260045260245ffd5b5f808335601e19843603018112611c12575f80fd5b83018035915067ffffffffffffffff821115611c2c575f80fd5b60200191503681900382131561170b575f80fd5b5f60018201611c5d57634e487b7160e01b5f52601160045260245ffd5b5060010190565b601f821115611cab57805f5260205f20601f840160051c81016020851015611c895750805b601f840160051c820191505b81811015611ca8575f8155600101611c95565b50505b505050565b815167ffffffffffffffff811115611cca57611cca61178d565b611cde81611cd88454611bb7565b84611c64565b602080601f831160018114611d11575f8415611cfa5750858301515b5f19600386901b1c1916600185901b178555611d68565b5f85815260208120601f198616915b82811015611d3f57888601518255948401946001909101908401611d20565b5085821015611d5c57878501515f19600388901b60f8161c191681555b505060018460011b0185555b505050505050565b5f8251611d818184602087016119e3565b9190910192915050565b602081525f6113596020830184611a05565b818382375f9101908152919050565b8481526001600160a01b0384166020820152608060408201525f611dd36080830185611a05565b905060548310611de557611de561163a565b82606083015295945050505050565b5f60208284031215611e04575f80fd5b505191905056fea164736f6c6343000818000a",
  "linkReferences": {},
  "deployedLinkReferences": {}
}